:100000000C9436000C945E000C945E000C945E0020
:100010000C945E000C945E000C945E000C945E00E8
:100020000C945E000C945E000C945E000C945E00D8
:100030000C945E000C945E000C945E000C945E00C8
:100040000C9420080C945E000C94F1080C94200988
:100050000C945E000C945E000C945E000C945E00A8
:100060000C94BD060C945E00EB0DF20D11241FBE26
:10007000CFEFD8E0DEBFCDBF11E0A0E0B1E0E8EF08
:10008000F0E202C005900D92AA34B107D9F712E050
:10009000AAE4B1E001C01D92AD32B107E1F710E072
:1000A000C6E3D0E004C02197FE010E944C0EC43389
:1000B000D107C9F70E948B0D0C947A100C940000A4
:1000C000DC01ED91FC910680F781E02D0994089503
:1000D000FC0185E191E09183808312821382148276
:1000E000158208950F931F93CF93DF9300D000D014
:1000F000CDB7DEB78C018FE38B831C8222E0AE018B
:100100004D5F5F4F60E080E20E9457062FE1298338
:100110001A82009759F40B5F1F4F22E0AE014F5F28
:100120005F4F6CE080E20E94270590E00F900F90F7
:100130000F900F90DF91CF911F910F9108950F9322
:100140001F93CF93417E562F5470452BE62FE170BD
:10015000F0E084E0EE0FFF1F8A95E1F7E42B61FBEE
:10016000222720F930E093E0220F331F9A95E1F720
:100170002E2B63FB882780F990E0880F991F822B34
:10018000C82FCF7D4C2F63E180E20E9421068C01B5
:10019000892BD9F481E090E00E94C2084C2F406284
:1001A00063E180E20E9421068C01892B71F481E0D9
:1001B00090E00E94C2084C2F63E180E20E94210679
:1001C0008C0184E690E00E94C208C801CF911F9183
:1001D0000F910895EF92FF920F931F93CF93DF93A8
:1001E0001F92CDB7DEB77C01162F042F9E012F5F23
:1001F0003F4F41E065E180E20E9497060097E9F4F5
:100200009981892F8F7B002319F09F73998302C0F6
:1002100080688983612F70E084E0759567958A9581
:10022000E1F74981C7010E949F00009731F4612FD7
:100230006F704981C7010E949F000F90DF91CF919D
:100240001F910F91FF90EF900895EF92FF920F93FF
:100250001F93CF93DF9361157105A9F0EB017C012A
:100260008B0120E030E0C8018C1B9D0BF8016191EF
:100270008F01662351F0232B41F440E0C7010E9417
:10028000EA009C01F0CF80E090E0DF91CF911F91D8
:100290000F91FF90EF90089540E00E94EA0021E066
:1002A00030E0892B11F020E030E0C9010895CF92B1
:1002B000DF92EF92FF920F931F93CF93DF936C0126
:1002C0008A0161157105A9F0EB0180E090E0E12C55
:1002D000F12CE016F10679F0892B49F4699140E0A0
:1002E000C6010E94EA002FEFE21AF20AF2CF87015C
:1002F00002C000E010E0C801DF91CF911F910F9183
:10030000FF90EF90DF90CF90089561E00E94E80D9C
:1003100062E070E080E090E00C949C0862E00E9453
:10032000E80D62E070E080E090E00C949C08CF93D0
:10033000DF9300D000D0CDB7DEB79C01962F642F9D
:100340001A82198240E450E05C834B83923008F0BB
:100350009170FE01E90FF11DE90FF11D9181690F07
:100360006068C9010F900F900F900F90DF91CF91AF
:100370000C94E80DFC0162816B7F628368600C94D1
:10038000E80DFC016281262F246022836C600C94AE
:10039000E80DCF93DF93EC0162E370E080E090E042
:1003A0000E949C0841E063E180E20E9421068111E5
:1003B0003FC041E063E0CE010E949F00811138C040
:1003C00084E991E10E94C20841E063E0CE010E940D
:1003D0009F0081112DC084E991E10E94C20841E093
:1003E00063E0CE010E949F00811122C086E990E067
:1003F0000E94C20841E062E0CE010E949F0081118C
:1004000017C068E2CE010E94E80D811111C084E09E
:100410008A83CE010E94C101CE010E9485011C8207
:1004200082E08B8366E0CE01DF91CF910C94E80DE2
:10043000DF91CF910895FC0162816D7F62836860D6
:100440000C94E80DFC016281262F226022836A60F1
:100450000C94E80DFC0162816E7F628368600C94ED
:10046000E80DFC016281262F2160228369600C94D3
:10047000E80D68E10C94E80D6CE10C94E80DFC01CA
:100480006381262F2160238365600C94E80DFC01B5
:1004900063816E7F638364600C94E80DCF93DF9378
:1004A000EC0140E060E00E949701E881F981028060
:1004B000F381E02D60E071E0CE01DF91CF910994EE
:1004C0000F931F93CF93DF93EC018B010E944E0299
:1004D00040E060E0CE010E949701E881F98102804E
:1004E000F381E02DB801CE01DF91CF911F910F91E3
:1004F0000994CF93DF93EC0140E061E00E94970103
:10050000E881F9810280F381E02D60E071E0CE01A5
:10051000DF91CF9109940F931F93CF93DF93EC0159
:100520008B010E94790240E061E0CE010E949701B8
:10053000E881F9810280F381E02DB801CE01DF91DD
:10054000CF911F910F91099440E00E94EA0021E0B1
:1005500030E0892B11F020E030E0C9010895EF92DE
:10056000FF920F931F93CF93DF9300D0CDB7DEB7E9
:100570007C01162F9E012F5F3F4F42E064E180E235
:100580000E949706009731F59981892F8F7311FF8B
:1005900002C090E001C090E810FF02C020E001C05E
:1005A00020E4982B922B998312FB112710F961E01C
:1005B00016279A819E7F612F692B6A8387010B5FC3
:1005C0001F4F22E0AE014F5F5F4F62E180E20E9469
:1005D000270590E00F900F90DF91CF911F910F9121
:1005E000FF90EF900895CF93DF93EC011D820E945E
:1005F0007200009759F467E0CE010E94AF020097A5
:1006000029F4CE01DF91CF910C94C901DF91CF91F4
:100610000895CF93DF931F92CDB7DEB79E012F5F72
:100620003F4F41E062E180E20E949706892B21F46E
:10063000898180958F7101C080E80F90DF91CF9103
:100640000895FC0120812230E1F320812430C9F398
:10065000089580914A0181110EC08091BC0080FDF7
:100660000AC08091BC0084FDFCCF81E080934A01E8
:1006700085EA8093BC000895449A459A08956F9244
:100680007F928F929F92AF92BF92CF92DF92EF9222
:10069000FF920F931F93CF93DF93382F3B01FA0103
:1006A000FFB6F8948091B201833008F07CC0293104
:1006B00008F07BC0A114B10409F479C0CB018D7F8F
:1006C000019731F4309709F474C0222309F471C002
:1006D000C3010297029758F40115110509F46BC084
:1006E000EE2009F468C0C114D10409F464C040913B
:1006F000B3018091B20190E0840F911D63E070E03E
:100700000E94160EEC01855B9E4F4C01DC01AD5939
:10071000BF4F3C9313976C9216972C93309781F0B0
:10072000222371F038E13C9FC0013D9F900D1124C0
:10073000422F50E0BF01855B9E4F0E94711004C0A4
:10074000F401E65AFF4F1082FE01EE0FFF1FED5637
:10075000FE4F11830083F401E35AFF4FE082F6015C
:100760001082FE01EE0FFF1FE756FE4FD182C082BE
:10077000CC0FDD1FC156DE4FB982A88282E0F501A1
:100780008083EE2021F0012B11F0CD2821F4F4011B
:10079000E35AFF4F10828091B2018F5F8093B201C4
:1007A000FFBE80E00AC081E007C082E005C083E0B0
:1007B00003C084E001C085E0FFBEDF91CF911F91AF
:1007C0000F91FF90EF90DF90CF90BF90AF909F90F0
:1007D0008F907F906F9008959FB7F8948091B201A9
:1007E00081508093B2018091B201882379F0809189
:1007F000B3018F5F8093B3018091B301833040F0E8
:100800008091B30183508093B30102C080E001C0A6
:1008100081E01092B1019FBF08958FB7F894909135
:10082000B2018FBF81E0933008F480E00895CF9348
:10083000DF931F92CDB7DEB710924A0189830E94E1
:100840003C039FEF9093BB008981811102C088E433
:1008500001C08CE08093B8008091B9008C7F8093B8
:10086000B90084E88093BC000F90DF91CF91089588
:100870001092BC00089581110C943C034498459853
:10088000089580914A01811103C08091BC0081705C
:100890000895AF92BF92CF92DF92EF92FF920F93A3
:1008A0001F93CF93DF9300D0CDB7DEB7F82E6983C7
:1008B0005A010E940D04882329F08AE18A95F1F7F4
:1008C00000C0F7CFC12CD12CE12C00E010E021E0DA
:1008D000AE014F5F5F4F61E070E08F2D0E943F03DC
:1008E000811104C08A830E9429038A810F900F908E
:1008F000DF91CF911F910F91FF90EF90DF90CF90FC
:10090000BF90AF900895AF92BF92CF92DF92EF92D7
:10091000FF920F931F93CF93DF9300D01F92CDB719
:10092000DEB7F82E590169834A830E940D0488239B
:1009300029F08AE18A95F1F700C0F7CFC12CD12CBC
:10094000E12C00E010E022E0AE014F5F5F4F61E07C
:1009500070E08F2D0E943F03811104C08B830E94A1
:1009600029038B810F900F900F90DF91CF911F91F2
:100970000F91FF90EF90DF90CF90BF90AF900895D0
:100980006F927F928F929F92AF92BF92CF92DF929F
:10099000EF92FF920F931F93CF93DF931F92CDB7E8
:1009A000DEB7F82EFA0159016DB67EB6DA010D9068
:1009B0000020E9F711978D01041B150BC801019662
:1009C0002DB73EB7281B390B0FB6F8943EBF0FBEAC
:1009D0002DBF8DB79EB701964C01ADB7BEB711962E
:1009E0006C93A801BF0101960E9471100E940D0432
:1009F000882329F0BAE1BA95F1F700C0F7CF21E0DA
:100A0000200FC12CD12CE12C00E010E0A40161E00A
:100A100070E08F2D0E943F03811104C089830E94E2
:100A2000290389810FB6F8947EBE0FBE6DBE0F906C
:100A3000DF91CF911F910F91FF90EF90DF90CF90BA
:100A4000BF90AF909F908F907F906F9008955F922E
:100A50006F927F928F929F92AF92BF92CF92DF92CE
:100A6000EF92FF920F931F93CF93DF931F92CDB717
:100A7000DEB7582E362FBA01F22E8DB69EB6822FD3
:100A800090E0AC014F5F5F4FEDB7FEB7E41BF50B95
:100A90000FB6F894FEBF0FBEEDBF4DB75EB74F5F08
:100AA0005F4F3A013183AC01C30101960E9471107E
:100AB0000E940D04882329F05AE15A95F1F700C0ED
:100AC000F7CF21E02F0D5801C12CD12CE12C00E0F3
:100AD00010E0A30161E070E0852D0E943F038111C9
:100AE00004C089830E94290389810FB6F8949EBEB1
:100AF0000FBE8DBE0F90DF91CF911F910F91FF9090
:100B0000EF90DF90CF90BF90AF909F908F907F90AD
:100B10006F905F9008958F929F92AF92BF92CF9205
:100B2000DF92EF92FF920F931F93CF93DF931F9269
:100B3000CDB7DEB7F82EE62E4A0169010E940D04FA
:100B4000882329F08AE18A95F1F700C0F7CF580190
:100B5000840120E040E050E062E070E08F2D0E94D0
:100B60003F03811104C089830E94290389810F906A
:100B7000DF91CF911F910F91FF90EF90DF90CF9079
:100B8000BF90AF909F908F9008956F927F929F92A9
:100B9000AF92BF92CF92DF92EF92FF920F931F938B
:100BA000CF93DF9300D0CDB7DEB7982E698339019C
:100BB0004A830E940D044A81882329F08AE18A959C
:100BC000F1F700C0F5CF57016801E42E830121E061
:100BD000AE014F5F5F4F63E070E0892D0E943F03DD
:100BE000811104C08A830E9429038A810F900F908B
:100BF000DF91CF911F910F91FF90EF90DF90CF90F9
:100C0000BF90AF909F907F906F900895CF93DF93A8
:100C10001F92CDB7DEB7AE014F5F5F4F0E94490410
:100C200081110AC0CE0101960E942103898190E0C2
:100C300091958195910901C090E00F90DF91CF913E
:100C40000895CF93DF931F92CDB7DEB79E012F5F3C
:100C50003F4F0E94830481110AC0CE0101960E9479
:100C60002103898190E091958195910901C090E0DF
:100C70000F90DF91CF910895CF93DF931F92CDB75F
:100C8000DEB79E012F5F3F4F0E94C00481110AC052
:100C9000CE0101960E942103898190E09195819572
:100CA000910901C090E00F90DF91CF9108950F93CB
:100CB0001F93CF93DF931F92CDB7DEB78E010F5FE7
:100CC0001F4F0E942705811109C0C8010E942103FE
:100CD000898190E091958195910901C090E00F90F4
:100CE000DF91CF911F910F9108950F931F93CF9391
:100CF000DF9300D0CDB7DEB78E010E5F1F4F9E0190
:100D00002F5F3F4F0E948B05811109C0C8010E94CF
:100D100021038A8190E091958195910901C090E02D
:100D20000F900F90DF91CF911F910F910895EF9247
:100D3000FF920F931F93CF93DF9300D0CDB7DEB711
:100D4000FE0132967F018E010F5F1F4F0E94C50585
:100D5000811109C0C7010E9421038A8190E0919509
:100D60008195910901C090E00F900F90DF91CF9194
:100D70001F910F91FF90EF9008951F920F920FB661
:100D80000F9211242F933F934F935F936F937F9311
:100D90008F939F93AF93BF93EF93FF938091B9008D
:100DA000887F883209F471C048F48031C1F18831FC
:100DB00009F46BC0883009F0FEC031C0803409F4FA
:100DC000A4C020F4883309F4F4C0F5C0803509F4D8
:100DD000A9C0883509F0EFC08FB7F894E091B3014E
:100DE000F0E0EE0FFF1FE756FE4FA081B1818FBFED
:100DF0008FB7F894E091B301F0E0EE0FFF1FED56CE
:100E0000FE4F0190F081E02D8FBF9C918091BB003F
:100E1000E90FF11D80838C918F5F8C93B8C09FB7D1
:100E2000F894E091B301F0E0E555FE4F80819FBF5B
:100E30009FB780FF0AC0F894E091B301F0E0E2555B
:100E4000FE4F80819FBF880F0AC0F894E091B301E4
:100E5000F0E0E255FE4F80819FBF880F8160809354
:100E6000BB008FB7F894E091B301F0E0EE0FFF1FE5
:100E7000E156FE4F0190F081E02D8FBF84E080832A
:100E800081E080934A0185ECB1C02FB7F89490912E
:100E9000B101E091B301F0E0EB55FE4F808198176E
:100EA00098F4E091B3018091B10191E0980F909393
:100EB000B10198E1E99FF0011124E80FF11DE55B14
:100EC000FE4F808190E002C08FEF9FEF2FBF8F3FDA
:100ED0002FEF920719F08093BB00D5CF9FB7F894FE
:100EE000E091B301F0E0E555FE4F80819FBF833074
:100EF00009F04DC08FB7F894E091B301F0E0E555EB
:100F0000FE4F92E090838FBF54C09FB7F894E0915A
:100F1000B301F0E0E855FE4F80819FBF823008F0BA
:100F2000B2CF33C08FB7F894E091B301F0E0EE0F89
:100F3000FF1FE756FE4FA081B1818FBF8FB7F89496
:100F4000E091B301F0E0EE0FFF1FED56FE4F019070
:100F5000F081E02D8FBF9C918091BB00E90FF11DC6
:100F600080838C918F5F8C932C919FB7F894E09144
:100F7000B301F0E0E855FE4F80819FBF30E090E084
:100F80000197281739070CF47ECF85E82FC08FB75B
:100F9000F894E091B301F0E0EE0FFF1FE156FE4F31
:100FA0000190F081E02D8FBF10820E94EC03882316
:100FB000D1F085EA1BC08FB7F894E091B301F0E05F
:100FC000EE0FFF1FE156FE4F0190F081E02D8FBF25
:100FD0008091B900887F816080830E94EC03882320
:100FE00011F085EB03C010924A0184E98093BC00A4
:100FF000FF91EF91BF91AF919F918F917F916F91F1
:101000005F914F913F912F910F900FBE0F901F90C6
:1010100018958FB7F8941092C10014BC15BC1092AB
:101020006E00109280001092810010926F0010925A
:10103000B0001092B100109270008FBF78940895A4
:101040001F920F920FB60F9211242F933F938F93FD
:101050009F93AF93BF938091B5019091B601A091FA
:10106000B701B091B8013091B40123E0230F2D37BF
:1010700020F40196A11DB11D05C026E8230F02969C
:10108000A11DB11D2093B4018093B5019093B601C9
:10109000A093B701B093B8018091B9019091BA01C2
:1010A000A091BB01B091BC010196A11DB11D80931F
:1010B000B9019093BA01A093BB01B093BC01BF9159
:1010C000AF919F918F913F912F910F900FBE0F90F5
:1010D0001F9018952FB7F8946091B5017091B601E3
:1010E0008091B7019091B8012FBF08953FB7F89450
:1010F0008091B9019091BA01A091BB01B091BC015E
:1011000026B5A89B02C02F3F99F43FBFBA2FA92F45
:10111000982F8827820F911DA11DB11DBC01CD0103
:1011200042E0660F771F881F991F4A95D1F70895EF
:101130000196A11DB11DE9CFCF92DF92EF92FF92F0
:10114000CF93DF936B017C010E947608EB01C11401
:10115000D104E104F10479F00E9476086C1B7D0B48
:10116000683E7340A0F381E0C81AD108E108F10895
:10117000C851DC4FECCFDF91CF91FF90EF90DF9023
:10118000CF900895019739F0880F991F880F991F04
:1011900002970197F1F708959FB7F89414BC15BC16
:1011A000EEE6F0E0108216BC84B5836084BD85B5A0
:1011B000836085BD8081816080839FBF0895209179
:1011C000090230910A0281E0232B09F480E008959E
:1011D0002091090230910A0281E0232B09F480E07A
:1011E00008951F920F920FB60F9211242F933F93E1
:1011F0004F935F936F937F938F939F93AF93BF931F
:10120000EF93FF938091C00082FD07C06091C600FC
:1012100085E092E00E94430D02C08091C600FF91DC
:10122000EF91BF91AF919F918F917F916F915F915E
:101230004F913F912F910F900FBE0F901F901895D7
:101240001F920F920FB60F9211242F933F934F933B
:101250005F936F937F938F939F93AF93BF93EF931E
:10126000FF938091C1019091C201892B39F08DEBE0
:1012700091E00E94F70C8093C60005C08091C100E8
:101280008F7D8093C100FF91EF91BF91AF919F91AE
:101290008F917F916F915F914F913F912F910F901F
:1012A0000FBE0F901F9018958F929F92AF92BF9292
:1012B000CF92DF92EF92FF926B017C014B015C01B8
:1012C000F3E0880C991CAA1CBB1CFA95D1F7DC0131
:1012D000CB01975FA24CBF4FBC01CD01A2E0660FCE
:1012E000771F881F991FAA95D1F7A50194010E9425
:1012F0002A0EC9010197811520E1920730F4C1142B
:1013000021EED206E104F104A1F4C501B4017C5D33
:101310008B409F4FA7019601E4E0220F331F441F2B
:10132000551FEA95D1F70E942A0EC901019730E0B6
:1013300001C031E04FB7F8942091C0002C7F20937A
:10134000C0002091C10022702093C10026E02093AC
:10135000C2009093C5008093C4008091C0003323E5
:1013600011F0826001C08D7F8093C0008091C10028
:1013700088618093C1008091C20086608093C20022
:101380008091C100806A8093C1004FBFFF90EF90B1
:10139000DF90CF90BF90AF909F908F9008958091F5
:1013A000C1019091C201892B21F08091C00086FF7C
:1013B000F6CF8091C00080648093C00008950E94A1
:1013C000CF09E1ECF0E080818770808385E092E0D6
:1013D0000C94840D0C94CF0960E070E085E092E0FD
:1013E0000C94260D0C94EC090C94EC0985E092E029
:1013F0000C94F70C0C94F6090C94F609CF93DF9338
:101400001F92CDB7DEB7682F8DEB91E069830E9404
:10141000680D69818111F8CF8DEB91E00E94430D39
:101420008091C10080628093C1008091C00080647F
:101430008093C00081E090E00F90DF91CF910895FC
:10144000862F0C94FE09EF92FF920F931F93CF9378
:10145000DF93009711F18C01EC01CE01801B910B01
:101460007E012881222399F08DEB91E00E94680D86
:101470008111FACF2196F70160818DEB91E00E94F6
:10148000430D8091C10080628093C100E6CF20911E
:10149000C00020642093C00002C080E090E0DF9193
:1014A000CF911F910F91FF90EF900895CB010C9475
:1014B000230AEF92FF920F931F93CF93DF938B0139
:1014C0000097F1F0EC017C01E60EF71ECE15DF056A
:1014D00089F08DEB91E00E94680D8111FACF69913E
:1014E0008DEB91E00E94430D8091C100806280935A
:1014F000C100ECCF8091C00080648093C00002C026
:1015000000E010E0C801DF91CF911F910F91FF9093
:10151000EF9008950C94590ACB01BA010E94590A20
:1015200080E090E00895CB01BA010C94590A209113
:10153000090230910A0281E0232B09F480E008952A
:1015400008950895089508950895DC01ED91FC91A2
:101550000190F081E02D6AE0099599270895EF92B6
:10156000FF920F931F93CF93DF931F92CDB7DEB7F8
:101570008C01DC01ED91FC910280F381E02D498327
:1015800009957C014981442329F0C8010E94A50ADC
:10159000E80EF91EC7010F90DF91CF911F910F91B7
:1015A000FF90EF900895EF92FF920F931F93CF93C8
:1015B000DF931F92CDB7DEB78C01DC01ED91FC917A
:1015C0000680F781E02D298309957C01298122235A
:1015D00029F0C8010E94A50AE80EF91EC7010F9064
:1015E000DF91CF911F910F91FF90EF900895FF929F
:1015F0000F931F93CF93DF931F92CDB7DEB78C016C
:10160000DC01ED91FC910190F081E02D4983099579
:10161000F82E4981442321F0C8010E94A50AF80E42
:101620008F2D90E00F90DF91CF911F910F91FF9040
:1016300008958F929F92AF92BF92CF92DF92EF92D6
:10164000FF920F931F93CF93DF93CDB7DEB7A19790
:101650000FB6F894DEBF0FBECDBF6C01142FE52F7F
:10166000CB01022F19A2223008F40AE07E0121E208
:10167000E20EF11C802E912CA12CB12C612F7E2F1B
:10168000A50194010E942A0E029F1019112481E0E5
:10169000E81AF1081A3014F4105D01C0195CD70182
:1016A0001C93122FE32FCA01232B242B252B31F758
:1016B000D601ED91FC910280F381E02DB701C601C6
:1016C0000995A1960FB6F894DEBF0FBECDBFDF918E
:1016D000CF911F910F91FF90EF90DF90CF90BF902F
:1016E000AF909F908F9008958F929F92AF92BF92EC
:1016F000CF92DF92EF92FF920F93CF937C014A013A
:101700005B0169012A30310589F477FF35C040E07B
:101710006DE2C7010E94F70AC82FB094A09490947C
:101720008094811C911CA11CB11C27C02031310563
:1017300049F440E060E3C7010E94F70AC82F40E087
:1017400068E715C02830310539F440E060E3C7018F
:101750000E94F70AC82F11C02230310569F440E019
:1017600060E3C7010E94F70AC82F40E062E6C701A4
:101770000E94F70AC80F01C0C0E02C2DB501A401DA
:10178000C7010E94190BC80F002321F0C7010E9456
:10179000A50AC80F8C2F90E0CF910F91FF90EF908A
:1017A000DF90CF90BF90AF909F908F900895EF9271
:1017B000FF920F93CF937C010E94190BC82F002337
:1017C00021F0C7010E94A50AC80F8C2F90E0CF918D
:1017D0000F91FF90EF9008954F925F926F927F92DA
:1017E0008F929F92AF92BF92CF92DF92EF92FF9231
:1017F0000F93CF93DF93EC016A017B01B22E9A0124
:10180000AB01C701B6010E946D10882321F040E0B2
:101810006DE371E029C026013701E89477F82FEFD6
:101820003FEF4FE75FE7C301B2010E946D108111E6
:101830000EC02FEF3FEF4FE75FE7C301B2010E94F9
:10184000B70E181624F440E061E471E00DC02FEFEC
:101850003FEF4FE75FE4C701B6010E94061018167C
:10186000ACF440E065E471E0CE01DF91CF910F91DF
:10187000FF90EF90DF90CF90BF90AF909F908F90B0
:101880007F906F905F904F900C94AF0A2FEF3FEFD7
:101890004FE75FECC701B6010E94B70E87FDE1CFAD
:1018A00020E030E0A901C701B6010E94B70E87FF12
:1018B0000BC040E06DE2CE010E94F70A4C01F7FA3E
:1018C000F094F7F8F09402C0812C912CA12C60E0E8
:1018D00070E080E09FE3AB1441F020E030E040E2B4
:1018E00051E40E94BB0EA394F6CF9B01AC01C7014B
:1018F000B6010E94530E2B013C010E94280F6B0180
:101900007C010E94540F9B01AC01C301B2010E94F3
:10191000520E2B013C012AE0B701A601CE010E9424
:10192000190B7401E80EF11CBB2039F040E06EE2A7
:10193000CE010E94F70AE80EF91EDB2CDD2039F1FA
:1019400020E030E040E251E4C301B2010E940A10FD
:101950002B013C010E94230F4B01AA2497FCA09469
:10196000BA2C00E02AE030E0B501A401CE010E94CB
:10197000740BC501B4010E94560F9B01AC01C30159
:10198000B2010E94520E2B013C01DA94D7CFC7015D
:10199000DF91CF910F91FF90EF90DF90CF90BF90AC
:1019A000AF909F908F907F906F905F904F90089531
:1019B000EF92FF920F93CF937C010E94EC0BC82F04
:1019C000002321F0C7010E94A50AC80F8C2F90E0C8
:1019D000CF910F91FF90EF900895FC017183608388
:1019E0005383428315821482178216820895FC0164
:1019F0004FB7F89484819581892B21F48FEF9FEF65
:101A00004FBF089586819781A081B181A80FB91F2A
:101A10008C9190E0268137812F5F3F4F378326835B
:101A200066817781228133816217730740F062817A
:101A3000738126813781261B370B378326832481C8
:101A400035812150310935832483DACFFC014FB72A
:101A5000F894848195816817790720F08FEF9FEFC4
:101A60004FBF08958681978122813381860F971F0A
:101A7000B9010E94020E0190F081E02DE80FF91FDC
:101A8000808190E0EDCFFC01362F2FB7F894448190
:101A900055818281938148175907B8F486819781CF
:101AA0004481558162817381840F951F0E94020ECB
:101AB000A081B181A80FB91F3C93848195810196C3
:101AC000958384832FBF80E008952FBF81E0089520
:101AD0006FB7F894FC0142815381248135816FBF37
:101AE00081E04217530709F080E008956FB7F8943A
:101AF000FC0142815381248135816FBF81E042170F
:101B0000530709F480E00895FC019FB7F89415820B
:101B100014829FBF0895CF93DF9300D000D000D0F0
:101B2000CDB7DEB7CE0101960E9468000E94090879
:101B30000E94CC0881E00E94170446E050E060E873
:101B400075E280E090E00E945409259A2D98CE011C
:101B500001960E94F302CE0101960E948501CE01FA
:101B600001960E948E01CE0101960E94470267E015
:101B7000CE0101960E94AF020E94F6098F3F2FEF1F
:101B80009207D1F38C30910549F4CE0101960E9461
:101B90008501CE0101960E948E01EECF8031910524
:101BA00019F440E060E005C08E30910539F440E062
:101BB00061E0CE0101960E949701DECF803291054F
:101BC000DCF240E0682FCE0101960E94F70AD4CFE4
:101BD00041E00C94EA001092B1011092B20110920F
:101BE000B301089540E250E06DE072E085E092E0DC
:101BF0000E94ED0C40E450E065EC71E08DEB91E06B
:101C00000C94ED0CAA1BBB1B51E107C0AA1FBB1F04
:101C1000A617B70710F0A61BB70B881F991F5A9578
:101C2000A9F780959095BC01CD01089597FB072EEB
:101C300016F4009407D077FD09D00E94020E07FC2D
:101C400005D03EF4909581959F4F089570956195CC
:101C50007F4F0895A1E21A2EAA1BBB1BFD010DC0E8
:101C6000AA1FBB1FEE1FFF1FA217B307E407F5074C
:101C700020F0A21BB30BE40BF50B661F771F881F28
:101C8000991F1A9469F760957095809590959B01BE
:101C9000AC01BD01CF010895EE0FFF1F0590F49137
:101CA000E02D09945058BB27AA270ED075C166D1E4
:101CB00030F06BD120F031F49F3F11F41EF45BC182
:101CC0000EF4E095E7FB51C1E92F77D180F3BA1705
:101CD000620773078407950718F071F49EF58FC1AA
:101CE0000EF4E0950B2EBA2FA02D0B01B901900137
:101CF0000C01CA01A0011124FF27591B99F0593F7B
:101D000050F4503E68F11A16F040A22F232F342FC2
:101D10004427585FF3CF469537952795A795F04010
:101D20005395C9F77EF41F16BA0B620B730B840B25
:101D3000BAF09150A1F0FF0FBB1F661F771F881FDD
:101D4000C2F70EC0BA0F621F731F841F48F4879535
:101D500077956795B795F7959E3F08F0B3CF939524
:101D6000880F08F09927EE0F979587950895D9D099
:101D700008F481E008950CD00FC107D140F0FED0E7
:101D800030F021F45F3F19F0F0C0511139C1F3C0B8
:101D900014D198F39923C9F35523B1F3951B550B2F
:101DA000BB27AA2762177307840738F09F5F5F4F2E
:101DB000220F331F441FAA1FA9F333D00E2E3AF06F
:101DC000E0E830D091505040E695001CCAF729D089
:101DD000FE2F27D0660F771F881FBB1F26173707D8
:101DE0004807AB07B0E809F0BB0B802DBF01FF2708
:101DF00093585F4F2AF09E3F510568F0B6C000C16E
:101E00005F3FECF3983EDCF3869577956795B79541
:101E1000F7959F5FC9F7880F911D9695879597F95C
:101E20000895E1E0660F771F881FBB1F62177307D5
:101E30008407BA0720F0621B730B840BBA0BEE1FEA
:101E400088F7E095089504D06894B111D9C0089539
:101E5000BCD088F09F5790F0B92F9927B751A0F0C8
:101E6000D1F0660F771F881F991F1AF0BA95C9F72E
:101E700012C0B13081F0C3D0B1E00895C0C0672F67
:101E8000782F8827B85F39F0B93FCCF386957795DE
:101E90006795B395D9F73EF49095809570956195C7
:101EA0007F4F8F4F9F4F0895E89409C097FB3EF4F2
:101EB00090958095709561957F4F8F4F9F4F992397
:101EC000A9F0F92F96E9BB279395F6958795779515
:101ED0006795B795F111F8CFFAF4BB0F11F460FFD5
:101EE0001BC06F5F7F4F8F4F9F4F16C0882311F02D
:101EF00096E911C0772321F09EE8872F762F05C041
:101F0000662371F096E8862F70E060E02AF09A95DB
:101F1000660F771F881FDAF7880F9695879597F9D0
:101F20000895990F0008550FAA0BE0E8FEEF16166A
:101F30001706E807F907C0F012161306E407F507BD
:101F400098F0621B730B840B950B39F40A2661F031
:101F5000232B242B252B21F408950A2609F4A140D4
:101F6000A6958FEF811D811D089597F99F6780E8E1
:101F700070E060E008959FEF80EC089500240A94DB
:101F80001616170618060906089500240A94121654
:101F90001306140605060895092E0394000C11F487
:101FA000882352F0BB0F40F4BF2B11F460FF04C034
:101FB0006F5F7F4F8F4F9F4F089557FD9058440F8D
:101FC000551F59F05F3F71F04795880F97FB991F98
:101FD00061F09F3F79F08795089512161306140655
:101FE000551FF2CF4695F1DF08C0161617061806E2
:101FF000991FF1CF86957105610508940895E894BD
:10200000BB2766277727CB0197F908958ADF08F465
:102010008FEF08950BD0C0CFB1DF28F0B6DF18F0F6
:10202000952309F0A2CFA7CF1124EACFC6DFA0F3F2
:10203000959FD1F3950F50E0551F629FF001729F5D
:10204000BB27F00DB11D639FAA27F00DB11DAA1F7C
:10205000649F6627B00DA11D661F829F2227B00DC9
:10206000A11D621F739FB00DA11D621F839FA00D54
:10207000611D221F749F3327A00D611D231F849FA4
:10208000600D211D822F762F6A2F11249F575040FB
:102090008AF0E1F088234AF0EE0FFF1FBB1F661F96
:1020A000771F881F91505040A9F79E3F510570F04F
:1020B0005CCFA6CF5F3FECF3983EDCF38695779537
:1020C0006795B795F795E7959F5FC1F7FE2B880F4A
:1020D000911D9695879597F9089523DF880B990BA5
:1020E0000895FB01DC0102C001900D924150504067
:0820F000D8F70895F894FFCF22
:1020F80020202020202020202020202020202020D8
:1021080000000000004C0125016000570167000035
:10211800000000200A560A8C0A930AEA09FA09F212
:1021280009DF08FEFF0000FC09F409E8086E616E8B
:0A21380000696E66006F7666000015
:00000001FF
