:100000000C9434000C9446000C9446000C9446006A
:100010000C9446000C9446000C9446000C94460048
:100020000C9446000C9446000C9446000C94460038
:100030000C9446000C9446000C9446000C94460028
:100040000C945F000C9446000C9446000C944600FF
:100050000C9446000C9446000C9446000C94460008
:100060000C9446000C94460011241FBECFEFD8E03C
:10007000DEBFCDBF11E0A0E0B1E001C01D92A9300C
:10008000B107E1F70E941E010C9432010C940000AC
:100090008FB7F8941092C10014BC15BC10926E007A
:1000A000109280001092810010926F001092B000A8
:1000B0001092B100109270008FBF789408951F9233
:1000C0000F920FB60F9211242F933F938F939F930C
:1000D000AF93BF938091010190910201A091030120
:1000E000B09104013091000123E0230F2D3720F45B
:1000F0000196A11DB11D05C026E8230F0296A11D82
:10010000B11D209300018093010190930201A093FF
:100110000301B09304018091050190910601A09123
:100120000701B09108010196A11DB11D8093050141
:1001300090930601A0930701B0930801BF91AF917E
:100140009F918F913F912F910F900FBE0F901F9015
:1001500018952FB7F8946091010170910201809178
:100160000301909104012FBF08953FB7F894809147
:10017000050190910601A0910701B091080126B5F3
:10018000A89B02C02F3F99F43FBFBA2FA92F982FE9
:100190008827820F911DA11DB11DBC01CD0142E038
:1001A000660F771F881F991F4A95D1F7089501960A
:1001B000A11DB11DE9CFCF92DF92EF92FF92CF93B5
:1001C000DF936B017C010E94B500EB01C114D104E7
:1001D000E104F10479F00E94B5006C1B7D0B683ED0
:1001E0007340A0F381E0C81AD108E108F108C851B2
:1001F000DC4FECCFDF91CF91FF90EF90DF90CF906D
:100200000895019739F0880F991F880F991F029759
:100210000197F1F708959FB7F89414BC15BCEEE66A
:10022000F0E0108216BC84B5836084BD85B5836020
:1002300085BD8081816080839FBF08950E944800B2
:100240000E940B01259A2D9864EF71E080E090E008
:100250000E94DB002D9A64EF71E080E090E00E9444
:08026000DB00F1CFF894FFCFA1
:00000001FF
